:020000040000fa
:080000000001040000000000f3
:020000040000fa
:100200004f19220000792200000188000000000040
:100210000c000700c0f821000100200011000700b9
:10022000000020000000e000020032000000020098
:1002300000000000b40d0200000000000040da00e1
:100240000000fe004440a900600920000000e0001a
:100250000300320000002000a00188004440a800f4
:100260000000060091018800800078000000eb008b
:1002700015003700e280400032a0b4009101ba00be
:10028000e280400032a0b4009102ba00e280400057
:1002900032a0b4000002eb00472bde00f507b200ed
:1002a000602ce10004003a000059eb008301e900f2
:1002b000fdff3e00040037006128e100010032002c
:1002c0000082eb00040007001101ba000200e00008
:1002d000e8ff3a00000006003159ba008301e90046
:1002e0000c0032002159ba008301e90008003200f5
:1002f0000400e00003003a00e280400032a0b400b5
:10030000f5ff370011d9ba008301e900faff3a007e
:100310008100e800e180400032a0b4000000060047
:10032000889fbe008a9fbe00010578000100e000a2
:100330000400350008003c000000e000200032000e
:100340000500370060001000e080180002003b004c
:1003500001f02c001a0037000004be006011b80044
:100360006b0920000982cf00020039000882cf000b
:100370000441b000694252000e00320008003b0008
:1003800082817100610164008904d1000884d30076
:100390008b05e8000442e800f9ff3a000500370049
:1003a0000804440089844c008b05e9000442e900fc
:1003b000fbff3a00170107000af0a70001f0a000b8
:1003c0004f05be004f04be000000060003f0a2006f
:1003d000889fbe008a9fbe008c1f780033010700f3
:1003e0003a0133006450e1004f0032006420e10024
:1003f0005200320003826c0007003b000905d00068
:100400000306d000820f54000c065d000200390084
:1004100002003200890178000306780085825500c9
:1004200004003d000003fd008103fd008502ea0099
:100430008b854200840f720002003b0060001000b8
:10044000e08018006011b8000005eb007a28e10098
:100450000a00390006007800c75ddd00f707b2002a
:10046000878075002d003700828171000a017800b5
:10047000610560008180d1000080d3008502e90021
:10048000f9ff3b00060440008784480002003b005f
:1004900060041400e0841c000988a30007003200f7
:1004a0008a81710082817100610164008904d10038
:1004b0000884d3008b05e800170037000978a300f3
:1004c00013003a000b00e000130034008b05e90034
:1004d0000804440089844c000a4474000978a3008d
:1004e0000d003a000b00e000070034008b05e90026
:1004f0000804440089844c0001003a000b002000ed
:100500000978a300f7ff32000001eb00020037007a
:10051000828171000a017800be0007000cf0a7007c
:1005200001f0a000f20037006420e10002003a0070
:10053000838f6c00f20033000801be000200be0091
:10054000eb003700889fbe008a9fbe008c1f78009a
:10055000d6000700dd00330003866c006450e10024
:10056000240032006420e100270032006150e100e5
:10057000220032006120e100210032008b85420020
:10058000eb07b1000134b800003ab800080442009b
:1005900089844a00013ab8000030b80088804000e1
:1005a00009014a0004003300000040008180480037
:1005b000020149008b05e900c909dd0083017000d3
:1005c0000100320013002000c814de004814dd00d2
:1005d0004709de001200b200c808de00088470007f
:1005e0008c00070001f0a1000cf0a70001f0a000b2
:1005f000bf0037006120e100c10032000801be00e9
:100600000200be00f7ff37006150e100fcff3a0036
:10061000bb0037000001be00bc0007000470a7004b
:1006200003f0a10003f8a30013003a006509b1002c
:1006300010003200090035006928e1000200350091
:1006400001002800000005000000400081804800f3
:100650008502e900fcff3a0000000600f88f420026
:10066000050035008100d1000080d3008502e8003c
:10067000fcff3a00000006008000eb0000000500cf
:10068000889fbe008a9fbe008c1f780087000700ed
:100690008e00330003866c006450e1002e003200af
:1006a0006420e100330032006150e1002f0032008d
:1006b0006120e1003100320085855500eb07b00074
:1006c0000900200008042000050037000804440049
:1006d00089844c000a0031000603430087834b00e5
:1006e0000001530081815b00f8ff33000203be006c
:1006f0000800a0000804440089844c00f6ff39007b
:10070000c639dd00830173000100320013002000b0
:100710008904d1000884d3000998a30005003200a1
:100720000800a7000300a0008904d1000884d300ba
:100730008b05e8008904d1000884d3000001eb0098
:100740000281d2003300070001f0a1000cf0a700e5
:1007500001f0a000660037006420e100680032006c
:100760000801be000200be00f7ff37006120e10073
:10077000630032006000b800f3ff37000000200083
:1007800001f82700f0ff37000001be005f000700fe
:100790000470a70003f0a1006509b1001600320043
:1007a0000d0035006828e10006003500f0ff2f003d
:1007b000f1ff27000300e00013003b0001002800c8
:1007c0000000050000004000818048008502e9002b
:1007d000fcff3a0008003700f88f420002003c009e
:1007e0008000eb00000005008100d1000080d300f4
:1007f0008502e800fcff3a000300e00002003b0035
:1008000060001000e08018000000060014002000c6
:100810005300370081002000618055000b003d002f
:100820000b00200061fe2f000100e1001d003400dc
:1008300082817100610164008904d1000884d300c1
:100840000000e800faff3a00710020006100640037
:1008500003007000020060000900320061044400df
:10086000e0844c000988a500050032008b05e800f3
:100870006808e10002003a008904d1000884d3002e
:10088000f20f20000258e10005003d00c75ddd00c9
:10089000f907b200898075000800780000000600a2
:1008a0000bf827008b007800000005000004be0054
:1008b000160007000003be000405be000200be00d3
:1008c00012000700844f7500000006000200be0001
:1008d0006450e100050036006420e10002003600ab
:1008e0000968a30001003a000800be000160a000f2
:1008f0004f0678004f05be004f04be000000060002
:10090000f0ff2f00f1ff2700f9ff3700c70ade00d4
:10091000f107b200f50fb20008003200e1cf42004b
:10092000020032000170a00024000500810f700059
:10093000010032000408050044000500810f70002a
:1009400002003a00140005008502e90000004000a2
:1009500081c04800fcff3b000170a000240005009e
:10096000889fbe008a9fbe00841f7800cfff0700cb
:100970004f00780011003300f0ff2f00838f6c00d0
:1009800006003b00040565000a00a70008003700c8
:1009900009f0a6001000200008003700820f540064
:1009a000838f5c00030039001000200001003e002e
:1009b0000000200009f0a7000000ea004f05be007b
:1009c0004f04be000000e000000006000200fa0034
:1009d000c702a800c722a800c742a800c762a80093
:1009e000cbc2a900cba2a800b8020700cb82a80006
:1009f000c7020700c9c2bf00614060000004e000f8
:100a00000300320010c0b300004f7800020037002e
:100a10000040eb00004f7800cb82a900cd02070018
:100a2000cbc2a900cba2a9001e00fb000080fa00e7
:100a3000000006000200fa00004f7800f8020700ec
:100a4000cb02a900cb22a900cb42a900cb62a9000e
:100a5000cba2a900cbc2a900cb82a900c702a900e2
:100a6000c722a900c742a900c762a900c7a2a9005e
:100a7000c7c2a900c782a9001e407800a5010700cf
:100a8000d2ff07000004e000fdff3a00e402070087
:100a9000d0c0b3009f010700ccff07000004e000b6
:100aa000fdff3a00de02070010c0b3009901070005
:100ab000db02070060c0b30096010700c3ff070018
:100ac0000004e000fdff3a00d50207000080fa00b4
:100ad000000006000200fa00000f7800070037004f
:100ae000baff07000004e000fdff3a001e00780096
:100af00010407800fc0107001e0fe8001e0078007f
:100b0000104078000004e000f5ff3a00afff070056
:100b10000004e000fdff3a000080fa00000006003b
:100b20000800fa000040eb00004f7800c702a80060
:100b3000c722a800c742a800c762a800cba2a8008d
:100b4000cbc2a90061020700cb82a8007002070097
:100b5000c9c2bf000080fb000000d10061406000fe
:100b6000804078000e00e80061409800c9c2bf00d4
:100b70000080fb004200de006140600080407800a1
:100b80000e00e80051409800c9c2bf000080fb0081
:100b90004300de0061406000804078000e00e80005
:100ba00041409800c9c2bf006140600080407800a9
:100bb0000e00e80031409800c9c2bf000080fb0071
:100bc0000000d10061406000804078000e00e80025
:100bd00021409800c9c2bf000080fb004200de0037
:100be00061406000804078000e00e80011409800ed
:100bf000c9c2bf000080fb004300de00614060000e
:100c0000804078000e00e80001487800cb82a900ff
:100c100050020700cbc2a900cba2a9000e00e80039
:100c2000304090000000fb004300dd001e4f7000cc
:100c30000e00e800204090000000fb004200dd00b4
:100c40001e4f70000e00e800104090000000fb00f6
:100c5000000040001e4f70000e00e80010407800b9
:100c60001e4f70001e00fb000080fa00000006000e
:100c70000a00fa000040eb00004f7800c702a8000d
:100c8000c722a800c742a800c762a800cba2a8003c
:100c9000cbc2a8000d020700cb82a8001c020700ef
:100ca000c9c2bf0061406000804078000e00e800cb
:100cb00071409800c9c2bf000080fb000000d10055
:100cc00061406000804078000e00e80061409800bc
:100cd000c9c2bf000080fb004200de00614060002e
:100ce000804078000e00e80051409800c9c2bf0063
:100cf0000080fb004300de0061406000804078001f
:100d00000e00e80041409800c9c2bf006140600089
:100d1000804078000e00e80031409800c9c2bf0052
:100d20000080fb000000d10061406000804078003e
:100d30000e00e80021409800c9c2bf000080fb00ff
:100d40004200de0061406000804078000e00e80054
:100d500011409800c9c2bf000080fb004300de00c4
:100d600061406000804078000e00e8000148780093
:100d7000cb82a900f7010700cbc2a900cba2a90032
:100d80000e00e800304090000000fb004300dd0052
:100d90001e4f70000e00e800204090000000fb0095
:100da0004200dd001e4f70000e00e8001040900071
:100db0000000fb00000040001e4f70000e00e80025
:100dc000104078001e4f70001e00fb000080fa00eb
:100dd000000006000200fa00004f7800cba2a90034
:100de000cbc2a900c702a900c722a900c742a90017
:100df000c762a900cb02a900cb22a8009e00fb007d
:100e000000022000008060004580de00614060003c
:100e1000614060004201dd00b12c2000914078006b
:100e2000b0cfb30000c0600002407000cbe2b7005a
:100e30001e00fb00700060004480de006140600026
:100e4000614060004301dd00b12c2000914078003a
:100e500070cfb30000c0600002407000cbe2b7006a
:100e6000cb82a800cc010700cb82a900b901070002
:100e70001e00fb00680060004380de0061406000ef
:100e800061416000b12c200091407800e0cfb300b8
:100e900000c0600002407000cbe2b7001e00fb0003
:100ea000640060004280de006140600061406000dc
:100eb00000414000b12c200091407800d0cfb30019
:100ec00000c0600002407000cbe2b7001e00fb00d3
:100ed000620060000080d1006140600061406000fd
:100ee0004201dd00b12c200091407800b0cfb3006a
:100ef00000c0600002407000cbe2b7001e407800e6
:100f000061406000614060006140600061406000dd
:100f10004301dd00b12c20009140780070cfb30078
:100f200000c0600002407000cbe2b700cb82a80096
:100f300099010700cb82a90086010700cbc2a90056
:100f4000cba2a900c702a800c722a800c742a800d8
:100f5000c762a8000080fa00000006000200fa0044
:100f6000004f7800cba2a900cbc2a900c702a900fc
:100f7000c722a900c742a900c762a900cb02a800e6
:100f80009e00fb0000042000008060004680de0020
:100f9000614060006140600000414000b12c2000d1
:100fa00091407800d0cfb30000c0600002407000d4
:100fb000cbe2b7009e00fb00000220000080600032
:100fc0004580de0061406000614060004201dd005c
:100fd000b12c200091407800b0cfb30000c0600079
:100fe00002407000cbe2b7001e00fb007000600002
:100ff0004480de0061406000614060004301dd002c
:10100000b12c20009140780070cfb30000c0600088
:1010100002407000cbe2b700cb82a8005e0107005f
:10102000cb82a9004b0107001e00fb006800600096
:101030004380de006140600061416000b12c20000f
:1010400091407800e0cfb30000c060000240700023
:10105000cbe2b7001e00fb00640060004280de00af
:10106000614060006140600000414000b12c200000
:1010700091407800d0cfb30000c060000240700003
:10108000cbe2b7001e00fb00620060000080d100d0
:1010900061406000614060004201dd00b12c200031
:1010a00091407800b0cfb30000c0600002407000f3
:1010b000cbe2b7001e4078006140600061406000f4
:1010c00061406000614060004301dd00b12c200000
:1010d0009140780070cfb30000c060000240700003
:1010e000cbe2b700cb82a8002b010700cb82a9007e
:1010f00018010700cbc2a900cba2a900c702a80013
:10110000c722a800c742a800c762a8000080fa0052
:10111000000006000200fa00004f7800cba2a900f0
:10112000cbc2a900c702a900c722a900c742a900d3
:10113000c762a9009e00fb0000082000008060003c
:101140004780de006140600061416000b12c2000fa
:1011500091407800e0cfb30000c060000240700012
:10116000cbe2b7009e00fb0000042000008060007e
:101170004680de0061406000614060000041400048
:10118000b12c200091407800d0cfb30000c06000a7
:1011900002407000cbe2b7009e00fb00000220007e
:1011a000008060004580de006140600061406000ba
:1011b0004201dd00b12c200091407800b0cfb30097
:1011c00000c0600002407000cbe2b7001e00fb00d0
:1011d000700060004480de0061406000614060009b
:1011e0004301dd00b12c20009140780070cfb300a6
:1011f00000c0600002407000cbe2b700cb82a800c4
:10120000e5000700cb82a900d20007001e00fb000a
:10121000680060004380de00614060006141600062
:10122000b12c200091407800e0cfb30000c06000f6
:1012300002407000cbe2b7001e00fb0064006000bb
:101240004280de006140600061406000004140007b
:10125000b12c200091407800d0cfb30000c06000d6
:1012600002407000cbe2b7001e00fb00620060008d
:101270000080d10061406000614060004201dd00fb
:10128000b12c200091407800b0cfb30000c06000c6
:1012900002407000cbe2b7001e4078006140600061
:1012a0006140600061406000614060004301dd001a
:1012b000b12c20009140780070cfb30000c06000d6
:1012c00002407000cbe2b700cb82a800b20007005a
:1012d000cb82a9009f000700cbc2a900cba2a90026
:1012e0000080fa00000006000200fa00004f7800bb
:1012f000cba2a900cbc2a800c702a900c722a9009f
:10130000c742a900c762a9009e00fb000008200098
:10131000008060004780de00614060006141600045
:10132000b12c200091407800e0cfb30000c06000f5
:1013300002407000cbe2b7009e00fb0000042000da
:10134000008060004680de00614060006140600017
:1013500000414000b12c200091407800d0cfb30074
:1013600000c0600002407000cbe2b7009e00fb00ae
:1013700000022000008060004580de0061406000c7
:10138000614060004201dd00b12c200091407800f6
:10139000b0cfb30000c0600002407000cbe2b700e5
:1013a0001e00fb00700060004480de0061406000b1
:1013b000614060004301dd00b12c200091407800c5
:1013c00070cfb30000c0600002407000cbe2b700f5
:1013d000cb82a80070000700cb82a9005d00070047
:1013e0001e00fb00680060004380de00614060007a
:1013f00061416000b12c200091407800e0cfb30043
:1014000000c0600002407000cbe2b7001e00fb008d
:10141000640060004280de00614060006140600066
:1014200000414000b12c200091407800d0cfb300a3
:1014300000c0600002407000cbe2b7001e00fb005d
:10144000620060000080d100614060006140600087
:101450004201dd00b12c200091407800b0cfb300f4
:1014600000c0600002407000cbe2b7001e40780070
:101470006140600061406000614060006140600068
:101480004301dd00b12c20009140780070cfb30003
:1014900000c0600002407000cbe2b700cb82a80021
:1014a0003d000700cb82a9002a000700cbc2a9009b
:1014b000cba2a900c702a800c722a800c742a80063
:1014c000c762a8000080fa00000006000200fa00cf
:1014d0000000eb00000f7800030037000060fe0002
:1014e0001e007800640f40001e007800cf80de00f0
:1014f0008bfb07009280260023ee2300c3fc07002d
:101500000000e000f5ff35000080fa000000060052
:101510000200fa000000eb00000f78000300370023
:101520000060fe001e007800640f40001e0078007e
:10153000cf80de007afb070072e02c0093022400cb
:10154000b2fc07000000e000f5ff35000080fa0063
:10155000000006000200fa000000eb00000f780017
:10156000030037000060fe001e007800640f40009a
:101570001e007800cf80de0069fb070062102800a3
:10158000d3f82300a1fc07000000e000f5ff3500c0
:101590000080fa00000006000200fa000000eb00e4
:1015a000000f7800030037000060fe001e00780086
:1015b000640f40001e007800cf80de0058fb07005b
:1015c000921824004305240090fc07000000e0006e
:1015d000f5ff35000080fa00000006000200fa0066
:1015e0000000eb00000f7800030037000060fe00f1
:1015f0001e007800640f40001e007800cf80de00df
:1016000047fb070062102800d30824007ffc070076
:101610000000e000f5ff35000080fa000000060041
:101620000400fa006000b800008fbe00050037001b
:101630000060fe0040002000010020001e0f40005e
:101640005e9748001e00be0035fb070002b02e006a
:10165000737d24006dfc07000000e000f4ff3500fe
:101660000080fa00000006000400fa006000b800e4
:10167000008fbe00050037000060fe004000200023
:10168000010020001e0f40005e9748001e00be00b3
:1016900023fb070002202f00f37024005bfc0700ef
:1016a0000000e000f4ff35000080fa0000000600b2
:1016b0000200fa000000eb00000f78000300370082
:1016c0000060fe001e007800640f40001e007800dd
:1016d000cf80de0012fb070062102800d308240030
:1016e0004afc07000000e000f5ff35000080fa002a
:1016f0000000060084c0a900e741600071092000d5
:101700009140780082cfb30082c0600083c0700037
:101710008000fd0097e0b7008000fd0068006000d9
:101720004300de004600dd00c10820009140780043
:101730000164a10080c07000010078008ce0b70057
:10174000000006000621ef0061088800800888007c
:101750001061a90000000600a21088006010880037
:101760007110880000000600800078000cc2bf00e5
:1017700066406000e64f500001003200f10fb200f9
:1017800081108800000006000fc2bf000004a20004
:101790006100600000000600211088003010880001
:1017a000000006000602a8000000060002e2b700e2
:1017b0000080eb000842e2000800350009c2bf00cb
:1017c0000068a300fdff3a0065000700e0ff2f005e
:1017d0000942e200010035000000eb0000000600b5
:1017e0000642a800000006000622a800000006002d
:1017f0000662a80006c2bf000038a300fdff3a0041
:1018000008c2a90000c2bf000080fb000000060063
:1018100006a2a8000682a800000006004011880069
:1018200031118800000006008000780029c2bf0046
:101830000028a30001003a00f10fb2005111880006
:101840000000060026c2bf008080eb000008a30055
:101850000800320026c2a90029c2bf000028a30048
:101860000200320051118000020037005111800047
:10187000f10fb200010078000000060026c2bf0090
:101880006100600000000600200e8800310e880014
:10189000430e8800540e8800020e880000000600e7
:1018a00061416100a31c2000934178000304a10062
:1018b00082c171008001fd00cae1b7008001fd0016
:1018c00000004000421d20000130790000000600a9
:1018d0008900a900e7416000810a2000914078005a
:1018e00082cfb30082c0600083c070008000fd0022
:1018f000a8e0b7008000fd00680060004300de0043
:1019000011092000914078000104a10080c07000fe
:101910000100780091e0b7000000060023e1a90073
:10192000f2ff220002016000120988004b00de0075
:10193000614060004300dd00321220001241780057
:101940000234a100004171000200780023e1b700d9
:1019500021098800000006004009880000000600f8
:1019600006c2bf000008a300fdff3a0006c2bf0088
:101970000028a300faff3a0006c2bf000038a30007
:10198000f7ff3a0006c2bf000048a300f4ff3a0088
:1019900009c2bf000068a300f1ff3a000000060082
:1019a0000002780081017800010078001100090030
:1019b0000280d8008400e8000000e000020032004d
:1019c00001027800f9ff37008048eb0011000900a0
:1019d0008281d8008000fd0081017800e94f50002d
:1019e000010034006740400005c3b30005524000c9
:1019f0000100e000f5ff3a00040078000000060056
:101a0000881f7800000478000100e0000200350023
:101a1000800178000400370080017800d0c2b30054
:101a2000805978008100ea0003007800dcff07009d
:0c1a3000080078004f0478000000060059
:020000040000fa
:0200000401f009
:04000000e1ff00001c
:020000040000fa
:0200000401f009
:04000400ff7f00007a
:020000040000fa
:0200000401f009
:040008007fff000076
:020000040000fa
:0200000401f009
:04001800ffff0000e6
:020000040000fa
:10000800a41f0000a41f0000a41f0000a41f0000dc
:10001800a41f0000a41f0000a41f0000a41f0000cc
:10002800a41f0000a41f0000a41f0000a41f0000bc
:10003800a41f0000a41f0000020e0000a41f00005f
:10004800a41f0000a41f0000a41f0000a41f00009c
:10005800a41f0000a41f0000a41f0000a41f00008c
:10006800a41f0000a41f0000a41f0000a41f00007c
:10007800a41f0000a41f0000a41f0000a41f00006c
:10008800a41f0000a41f0000a41f0000a41f00005c
:10009800a41f0000a41f0000a41f0000a41f00004c
:1000a800a41f0000a41f0000a41f0000a41f00003c
:1000b800a41f0000a41f0000a41f0000a41f00002c
:1000c8004a0e0000a41f0000a41f0000a41f000087
:1000d800a41f0000a41f0000a41f0000a41f00000c
:1000e800a41f0000a41f0000a41f0000a41f0000fc
:0800f800a41f0000a41f00007a
:020000040000fa
:10010800a41f0000a41f0000a41f0000a41f0000db
:10011800a41f0000a41f0000a41f0000a41f0000cb
:10012800a41f0000a41f0000a41f0000a41f0000bb
:10013800a41f0000a41f0000020e0000a41f00005e
:10014800a41f0000a41f0000a41f0000a41f00009b
:10015800a41f0000a41f0000a41f0000a41f00008b
:10016800a41f0000a41f0000a41f0000a41f00007b
:10017800a41f0000a41f0000a41f0000a41f00006b
:10018800a41f0000a41f0000a41f0000a41f00005b
:10019800a41f0000a41f0000a41f0000a41f00004b
:1001a800a41f0000a41f0000a41f0000a41f00003b
:1001b800a41f0000a41f0000a41f0000a41f00002b
:1001c8004a0e0000a41f0000a41f0000a41f000086
:1001d800a41f0000a41f0000a41f0000a41f00000b
:1001e800a41f0000a41f0000a41f0000a41f0000fb
:0801f800a41f0000a41f000079
:020000040000fa
:101a3c0020550000502000003d2000004f500000b9
:101a4c00544f00004e5300000020000042410000a3
:101a5c00434b0000203d0000204d00004150000091
:101a6c00205200004f4f00004d000000424100008a
:101a7c00434b0000203d000020530000544f000059
:101a8c00500000004d41000050500000494e000035
:101a9c0047200000524f00004f4d00000052000044
:101aac004620000020520000522000002047000079
:101abc004d2000004d410000204d00004200000070
:101acc00524600002020000052520000202000004e
:101adc00474d00004f2000004d4f0000003000002b
:101aec0030300000000000003030000030000000fa
:101afc0000590000204400004953000054410000ec
:101b0c004e430000452000003d200000005800001e
:101b1c002044000049530000544100004e43000093
:101b2c00452000003d200000004200004143000021
:101b3c004b2000003d20000042410000434b0000c0
:101b4c0000550000502000003d20000053430000d1
:0c1b5c00524f00004c450000000000004b
:020000040000fa
:101b68000c00fa005f000700810007004002070030
:101b780045020700dc0207009400070099000700ef
:101b8800730007000d030700280307000a00370049
:101b98000000eb00e0fb88001e007800dc02070074
:101ba800000f78005a060700c003200060fc880078
:101bb800c003200070fc88001e00e000f4ff320023
:101bc800100020009e0f1000f1ff320007003700c0
:101bd800490507008a0207001502070037070700b2
:101be8001e007800ca020700000f780020002000bd
:101bf8009e0f1000f6ff3200e3ff370000a0fe0042
:101c08003400f800881f780008002000a801880028
:101c18004f0478000000fa00a04280000000e800ad
:101c2800a0428800b04280000000e00003003200bb
:101c3800b04280000000e900b0428800c042800045
:101c48000000e800c0428800e04280000000e80090
:101c5800e0428800f04280000000e800f04288007e
:101c6800004380000000e800004388001043800023
:101c78000000e9001043880084c0a9000080fa0031
:101c88003400f9000080fe000040060000a0fe00bd
:101c98003400f800881f780008002000a801880098
:101ca8004f0478000000fa00300980000000e000ce
:101cb80004003a00804280000000e800804288006a
:101cc80003003700804280000000e900804288005d
:101cd8008900a9000080fa003400f9000080fe00a5
:101ce800004006000000fa0040002000401688006e
:101cf800800f2000301688000000eb007016880066
:101d08000000eb00601688000000eb00a0168800b9
:101d1800f00f200090168800000e2000d0168800d2
:101d28000000eb00c01688000000eb0000178800d8
:101d380040012000f016880000202000301788009d
:101d480000082000201788000080fa000000060024
:101d58000000fa00e0ff2f0064fe0700a1cc21007c
:101d6800d0f82f0075fe07000080fa00000006007a
:101d78000000fa0072012000d175270000f02d0044
:101d880073fe07000080fa00000006000200fa0057
:101d9800000f78001e80e8001000780070fe070031
:101da80077fe07000004e000fdff3a001e007800ff
:101db800100078006afe070071fe07000004e000ca
:101dc800fdff3a000080fa00000006000000fa005b
:101dd8002104200000202d006dfe07000080fa007d
:101de800000006000000fa00020007000080fa0068
:101df800000006000000fa00e14280008004200094
:101e0800808f50000e003a0064fe0700430107006f
:101e180000ceb30063fe07000040eb0061fe070040
:101e280010c5b3005ffe07006bfe07003b0107000b
:101e380006c2bf00644060000004e000fbff3a00f7
:101e4800e1428000f0082000808f50000e0036002c
:101e580052fe07003101070020ceb30051fe0700f3
:101e68000040eb004ffe070010c5b3004dfe070011
:101e780059fe07002901070006c2bf006440600040
:101e88000004e000fbff3a000080fa0000000600b2
:101e98000800fa00881f780040fe07001f010700ad
:101ea80000ceb3003ffe070020c0b3003dfe070090
:101eb8004bfe07001901070006c2bf006240600020
:101ec8000004e000fbff3a0010ceb30035fe070027
:101ed80045fe07008080fb000e80e80001087800be
:101ee80049fe07000d0107003bfe07000b01070034
:101ef80006c2bf00644060000004e000fbff3a0037
:101f08000e80e80010007800c800dd000e80e800b0
:101f18000108780021fe07000001070000ceb30089
:101f280020fe070030c0b3001efe07002cfe07008d
:101f3800fa00070006c2bf00624060000004e0002b
:101f4800fbff3a0010ceb30016fe07000e80e80033
:101f58001004780024fe07000080fb008000740055
:101f68000e80e8000108780027fe0700eb00070054
:101f780019fe0700e900070006c2bf0064406000c0
:101f88000004e000fbff3a0004fe0700e30007003e
:101f980020ceb30003fe070020c0b30001fe0700f7
:101fa8000ffe0700dd00070006c2bf0062406000a8
:101fb8000004e000fbff3a0030ceb300f9fd070053
:101fc80009fe07008080fb000e80e80011009800e1
:101fd8000dfe0700d1000700fffd0700cf00070036
:101fe80006c2bf00644060000004e000fbff3a0046
:101ff8000e80e80010009000c800dd000e80e800a8
:1020080011009800e5fd0700c400070020ceb300ca
:10201800e4fd070030c0b300e2fd0700f0fd070053
:10202800be00070006c2bf00624060000004e00076
:10203800fbff3a0030ceb300dafd07000e80e8005f
:1020480010049000e8fd07000080fb008000740089
:102058000e80e80011009800ebfd0700af000700b4
:10206800ddfd0700ad00070006c2bf006440600048
:102078000004e000fbff3a005eff07000000eb00f1
:10208800000f78000a0037001e0178001e00780053
:102098008e80e80000004000e08178008200410066
:1020a800c0f8210000804000030878001e0fe800f7
:1020b800100020009e0f1000f3ff34004f0478003a
:1020c8000080fa00000006000400fa00889fbe00a5
:1020d80010079800b1fd07009000070000ceb3007c
:1020e800b0fd070040c0b300aefd0700bcfd07000f
:1020f8008a00070006c2bf00624060000004e000da
:10210800fbff3a0010ceb300a6fd0700b6fd07009e
:102118008080fb001e00900001087800bafd0700cf
:102128007e000700acfd07007c00070006c2bf0068
:10213800644060000004e000fbff3a001e009000cd
:1021480010007800c800dd001e009000010878002b
:1021580092fd07007100070000ceb30091fd070053
:1021680050c0b3008ffd07009dfd07006b000700fe
:1021780006c2bf00624060000004e000fbff3a00b6
:1021880010ceb30087fd07001e00900010047800f1
:1021980095fd07000080fb00800074001e00900081
:1021a8000108780098fd07005c0007008afd070019
:1021b8005a00070006c2bf00644060000004e00047
:1021c800fbff3a0075fd07005400070020ceb3005e
:1021d80074fd070040c0b30072fd070080fd0700d2
:1021e8004e00070006c2bf00624060000004e00025
:1021f800fbff3a0030ceb3006afd07001e009000d6
:102208000084e80078fd07000080fb00000c7800df
:102218007dfd0700410007006ffd07003f00070034
:1022280006c2bf00644060000004e000fbff3a0003
:102238001e0090008080e8001e0090000080e800ea
:10224800100078004800dd008008780053fd070082
:102258003200070020ceb30052fd070050c0b30083
:1022680050fd07005efd07002c00070006c2bf00f6
:10227800624060000004e000fbff3a0030ceb3008b
:1022880048fd07001e0090008084e8001e009000b2
:102298000080e8001004780053fd07000080fb0070
:1022a80000007400800c780057fd07001b00070031
:1022b80049fd07001900070006c2bf00644060001e
:1022c8000004e000fbff3a000000eb00000f78007c
:1022d8000c0037009e0178001e00780000004000c6
:1022e800800078001e0090000080400010017800f7
:1022f800838041004086200000804000020878006a
:102308001e0fe800100020009e0f1000f1ff34009f
:102318004f04be000080fa00000006000200fa0028
:102328000040eb00004f7800010037001e4fe80026
:10233800e0c0b3009e4f1000fcff36000080fa009a
:10234800000006000000fa0014fd0700f3ff070074
:1023580000ceb30013fd07000040eb0011fd07009d
:1023680000cab3000ffd07001bfd0700ebff0700c5
:1023780006c2bf00644060000004e000fbff3a00b2
:1023880006fd0700e5ff070000ceb30005fd0700c6
:102398000040eb0003fd0700a0cab30001fd0700e1
:1023a8000dfd0700ddff070006c2bf0064406000a6
:1023b8000004e000fbff3a00f8fc0700d7ff070025
:1023c80000ceb300f7fc07000040eb00f5fc070067
:1023d80050cab300f3fc0700fffc0700cfff07005b
:1023e80006c2bf00644060000004e000fbff3a0042
:1023f800eafc0700c9ff070000ceb300e9fc0700ac
:102408000040eb00e7fc070020ceb300e5fc070026
:10241800f1fc0700c1ff070006c2bf00644060006e
:102428000004e000fbff3a000080fa00000006000c
:102438000000fa00e142800080042000808f5000f4
:1024480002003a006bfe070007003700e1428000f7
:10245800f0082000808f5000030036008cfe070033
:102468000000eb00e04288000080fa00000006004f
:102478000000fa00f1fb2f00e0472900e5fc070007
:102488000080fa00000006000000fa00dae2a90065
:1024980010002000e2fc070087c0bf006440600015
:1024a8000004e000fcff3200dae2a800e3fc0700c9
:1024b8008740a9000080fa00000006000000fa002a
:1024c800dae2a90010002000d5fc070087c0bf0091
:1024d800644060000004e000fcff3200dae2a8007b
:1024e8008740a9000080fa00000006000200fa00f8
:1024f800dae2a900d0ea2d00c9fc0700ddfc0700dc
:102508000004e000fdff3200dae2a800cbfc07007f
:10251800000f78001e00780006000700000f780002
:10252800000e2000d01688001e0078000080fa00f7
:10253800000006000800fa00100798001e0090002e
:102548004300de00000f78001e007800cf80de0018
:1025580071f7070020079800310798001e00e00077
:1025680007003d0002002000037824002e009000a0
:10257800be00900094f707002007980031079800e4
:10258800b2472100e30424002e009000be00900012
:10259800eaf707001df80700000f78001e00780012
:1025a8000080fa00000006000400fa0010079800f6
:1025b8001e007800cf80de0057f707003233230073
:1025c800330524002cf807006df80700000f780089
:1025d8001e0078000080fa00000006000400fa00df
:1025e800100798009e009000e0982f00008040009f
:1025f800000f78001e0078000080fa000000060036
:102608000800fa000000eb00300798000000eb001b
:10261800200798000000eb001007980020672000b2
:10262800000f7800c0428000eb0f50001700360002
:10263800aeff0700000f78001e007800daff0700e1
:10264800300798001e007800e4ff07001007980084
:102658001e009000d4ff0700200798000000eb0040
:10266800c04288001e009000ea0f400003003400ba
:102678001e009000e90f50000400340030fc800078
:10268800ae0090000100400030fc88000080fa0095
:10269800000006000000fa002400200003f12000da
:1026a80082002a008000eb00a070220074fc070062
:1026b8000041eb00415620001000200076fc070086
:1026c8000080fa00000006000200fa00000f7800ff
:1026d8000041eb009e007800100020006efc07000f
:1026e8000080fa00000006000000fa00d0ff2f006a
:1026f80075fc0700f1e72f0090d32d0085fc07003b
:10270800800c200092fc07000080fa000000060000
:102718000200fa00000f7800b04280000000e000dc
:1027280023003a00d4c2bf00684060000004e00003
:1027380005003a0010002000000f7800f00020008b
:10274800b04288001a003700d4c2bf00644060005d
:102758000004e00005003a0020002000000f780087
:10276800f0002000b042880011003700d4c2bf003a
:10277800624060000004e00005003a0030002000dc
:10278800000f7800f0002000b042880008003700f1
:10279800d4c2bf00614060000004e00004003a00b9
:1027a80040002000000f7800f0002000b0428800b0
:1027b8001e0078000080fa00000006000000fa0001
:1027c8000c00070080c2b30098f807007df80700e6
:1027d8000004e000fdff3a000040eb00ddf90700cf
:1027e80078f807000004e000fdff3a000080fa00d6
:1027f800000006000000fa0087fb070080c2b30053
:102808008af807006ff807000004e000fdff3a00af
:102818000040eb00cff907006af807000004e00069
:10282800fdff3a000080fa00000006002000fa00d0
:102838000e80e800b1d22800100009003158780055
:102848001001b10073004700e1d128000c00090015
:1028580031587800d000b100f1428000703e20006d
:10286800808f50001e00360010c0b30027fa070002
:1028780054f807000004e000fdff3a0078fb070069
:102888000e8fe8000040eb00b2f907004df8070092
:102898000004e000fdff3a001e0078008bf80700f6
:1028a80048f807000004e000fdff3a0000c4b30048
:1028b800a8f9070043f807000004e000fdff3a000c
:1028c800730f47001e00780080f807003df80700e6
:1028d8000004e000fdff3a000000eb00f042880031
:1028e8000080fa00000006001c00fa000e80e800d4
:1028f80081d428000c00090031587800d000b100bc
:102908006f004700c1d328000b0009003158780038
:10291800c000b100f1428000703e2000808f50005e
:102928001e00360010c0b300f8f9070025f80700ac
:102938000004e000fdff3a0049fb07000e8fe800a5
:102948000040eb0083f907001ef807000004e000d0
:10295800fdff3a001e0078005cf8070019f8070030
:102968000004e000fdff3a0000c4b30079f9070055
:1029780014f807000004e000fdff3a006f0f47005d
:102988001e00780051f807000ef807000004e00068
:10299800fdff3a000000eb00f04288000080fa00da
:1029a800000006008600fa000e80e80051d52800d5
:1029b80010000900315878001001b10060fc800057
:1029c8008000780073004700a20020000afc07007e
:1029d80070fc80008000780078004700a20020008a
:1029e80005fc070051fc80007d004700a200200084
:1029f80001fc070041ef8000200220000e0040008b
:102a0800a2002000fcfb070051ef800070022000ac
:102a18000e004000a2002000f7fb0700e0fb80004a
:102a28000000e90080004000c0de21000080400076
:102a380090007800c00220000e004000a200200094
:102a4800edfb0700e0fb80000080e900800040000b
:102a5800c0de2100008040009000780010032000b4
:102a68000e004000a2002000e3fb0700e0fb80000e
:102a78006300500080004000c0de2100008040005c
:102a880090007800600320000e004000a2002000a3
:102a9800d9fb0700e0fb8000640050008000400084
:102aa800c0de21000080400090007800b0032000c4
:102ab8000e004000a2002000cffb0700e0fb8000d2
:102ac8006500500080004000c0de2100008040000a
:102ad80090007800000420000e004000a2002000b2
:102ae800c5fb0700e0fb8000660050008000400046
:102af800c0de2100008040009000780050042000d3
:102b08000e004000a2002000bbfb0700e0fb800095
:102b18006700500080004000c0de210000804000b7
:102b280090007800a00420000e004000a2002000c1
:102b3800b1fb0700e0fb8000680050008000400007
:102b4800c0de21000080400090007800f0042000e2
:102b58000e004000a2002000a7fb0700e0fb800059
:102b68006900500080004000c0de21000080400065
:102b780090007800400520000e004000a2002000d0
:102b88009dfb0700e0fb80008000400040eb210037
:102b98000080400090007800900520000e00400062
:102ba800a200200094fb0700e0fb80000000e90081
:102bb8008000400040eb2100008040009000780039
:102bc800e00520000e004000a20020008afb07005c
:102bd800e0fb80000080e9008000400040eb21001d
:102be8000080400090007800300620000e00400071
:102bf800a200200080fb0700e0fb8000630050007b
:102c08008000400040eb21000080400090007800e8
:102c1800800620000e004000a200200076fb07007e
:102c2800e0fb8000640050008000400040eb210081
:102c38000080400090007800d00620000e00400080
:102c4800a20020006cfb0700e0fb8000650050003c
:102c58008000400040eb2100008040009000780098
:102c6800200720000e004000a200200062fb0700a1
:102c7800e0fb8000660050008000400040eb21002f
:102c88000080400090007800700720000e0040008f
:102c9800a200200058fb0700e0fb800067005000fe
:102ca8008000400040eb2100008040009000780048
:102cb800c00720000e004000a20020004efb0700c5
:102cc800e0fb8000680050008000400040eb2100dd
:102cd8000080400090007800100820000e0040009e
:102ce800a200200044fb0700f1428000301f2000b2
:102cf800808f5000fe00360010c0b30003f90700b3
:102d080057fa07000e8fe8000040eb0091f8070023
:102d18002cf707000004e000fdff3a001e007800d1
:102d28006af7070027f707000004e000fdff3a00f4
:102d380000c4b30087f8070022f707000004e0008a
:102d4800fdff3a00730f47001e0078005ff7070089
:102d58001cf707000004e000fdff3a0040c4b30080
:102d68007cf8070017f707000004e000fdff3a00b1
:102d7800780f47001e00780054f7070011f7070086
:102d88000004e000fdff3a0070c0b30071f80700ce
:102d98000cf707000004e000fdff3a00c002200025
:102da800000f47001e00780048f7070005f70700e6
:102db8000004e000fdff3a0080c0b30065f807009a
:102dc80000f707000004e000fdff3a0011032000af
:102dd800010f47001e0078003cf70700f9f60700ce
:102de8000004e000fdff3a0090c0b30059f8070066
:102df800f4f607000004e000fdff3a00600320003d
:102e0800000f47001e00780030f70700edf60700b6
:102e18000004e000fdff3a00a0c0b3004df8070031
:102e2800e8f607000004e000fdff3a00b1032000c7
:102e3800010f47001e00780024f70700e1f607009d
:102e48000004e000fdff3a00b0c0b30041f80700fd
:102e5800dcf607000004e000fdff3a000004200053
:102e6800000f47001e00780018f70700d5f6070086
:102e78000004e000fdff3a00c0c0b30035f80700c9
:102e8800d0f607000004e000fdff3a0051042000de
:102e9800010f47001e0078000cf70700c9f607006d
:102ea8000004e000fdff3a00d0c0b30029f8070095
:102eb800c4f607000004e000fdff3a00a00420006b
:102ec800000f47001e00780000f70700bdf6070056
:102ed8000004e000fdff3a00e0c0b3001df8070061
:102ee800b8f607000004e000fdff3a00f1042000f6
:102ef800010f47001e007800f4f60700b1f607003e
:102f08000004e000fdff3a00f0c0b30011f807002c
:102f1800acf607000004e000fdff3a004005200081
:102f2800000f47001e007800e8f60700a5f6070026
:102f38000004e000fdff3a0070c4b30005f8070084
:102f4800a0f607000004e000fdff3a00910520000c
:102f5800010f47001e007800dcf6070099f607000d
:102f68000004e000fdff3a0080c4b300f9f7070051
:102f780094f607000004e000fdff3a00e005200099
:102f8800000f47001e007800d0f607008df60700f6
:102f98000004e000fdff3a0090c4b300edf707001d
:102fa80088f607000004e000fdff3a003106200023
:102fb800010f47001e007800c4f6070081f60700dd
:102fc8000004e000fdff3a00a0c4b300e1f70700e9
:102fd8007cf607000004e000fdff3a0080062000b0
:102fe800000f47001e007800b8f6070075f60700c6
:102ff8000004e000fdff3a00b0c4b300d5f70700b5
:1030080070f607000004e000fdff3a00d10620003a
:10301800010f47001e007800acf6070069f60700ac
:103028000004e000fdff3a00c0c4b300c9f7070080
:1030380064f607000004e000fdff3a0020072000c6
:10304800000f47001e007800a0f607005df6070095
:103058000004e000fdff3a00d0c4b300bdf707004c
:1030680058f607000004e000fdff3a007107200051
:10307800010f47001e00780094f6070051f607007c
:103088000004e000fdff3a00e0c4b300b1f7070018
:103098004cf607000004e000fdff3a00c0072000de
:1030a800000f47001e00780088f6070045f6070065
:1030b8000004e000fdff3a0060c0b300a5f7070078
:1030c80040f607000004e000fdff3a00710220000e
:1030d800010f47001e0078007cf6070039f607004c
:1030e8000004e000fdff3a000000eb00f042880019
:1030f8000080fa00000006003000fa000e80e800a8
:1031080061d628000e00090031587800f000b1009f
:1031180060fc80008000780071004700a200200059
:1031280035fa070070fc80008000780076004700c0
:10313800a200200030fa070051fc80007b00470005
:10314800a20020002cfa070041ef800000022000b6
:103158000e004000a200200027fa070051ef80006f
:10316800500220000e004000a200200022fa0700b2
:1031780081428000a00220000e004000a200200032
:103188001dfa0700f1428000301f2000808f500098
:103198004a00360010c0b300dcf7070030f907001a
:1031a8000e8fe8000040eb006af7070005f60700fd
:1031b8000004e000fdff3a001e00780043f6070017
:1031c80000f607000004e000fdff3a0000c4b30069
:1031d80060f70700fbf507000004e000fdff3a0078
:1031e800710f47001e00780038f60700f5f5070054
:1031f8000004e000fdff3a0040c4b30055f70700a3
:10320800f0f507000004e000fdff3a00760f4700e4
:103218001e0078002df60700eaf507000004e0001c
:10322800fdff3a0080c4b3004af70700e5f5070040
:103238000004e000fdff3a0000022000000f4700f4
:103248001e00780021f60700def507000004e00004
:10325800fdff3a00a0c4b3003ef70700d9f5070008
:103268000004e000fdff3a0051022000010f470072
:103278001e00780015f60700d2f507000004e000ec
:10328800fdff3a00c0c4b30032f70700cdf50700d0
:103298000004e000fdff3a00a0022000000f4700f4
:1032a8001e00780009f60700c6f507000004e000d4
:1032b800fdff3a000000eb00f04288000080fa00b1
:1032c800000006002800fa000e80e800d1d8280087
:1032d8000d00090031587800e000b1007000470087
:1032e800f1d728000d00090031587800e000b1003e
:1032f8007e004700a1d72800040009003158780053
:103308005000b100300220000e00400051d72800c4
:1033180004000900315878005000b10010c0b30013
:103328007af70700a7f507000004e000fdff3a0060
:10333800cbf807000e8fe8000040eb0005f7070008
:10334800a0f507000004e000fdff3a001e00780029
:10335800def507009bf507000004e000fdff3a00da
:103368007e0f47001e007800d8f5070095f5070086
:103378000004e000fdff3a0000c4b300f5f60700c2
:1033880090f507000004e000fdff3a00700f4700c9
:103398001e007800cdf507008af507000004e0005c
:1033a800fdff3a0030022000000f47001e007800a1
:1033b800c6f5070083f507000004e000fdff3a00aa
:1033c8000080fa00000006001a00fa000e80e800eb
:1033d80071da28000b00090031587800c000b100ec
:1033e8006e004700b1d928000b0009003158780059
:1033f800c000b100f1428000703e2000808f500074
:103408001b00360010c0b30040f7070094f807000f
:103418000e8fe8000040eb00cef6070069f50700c4
:103428000004e000fdff3a001e007800a7f5070041
:1034380064f507000004e000fdff3a0000c4b30093
:10344800c4f607005ff507000004e000fdff3a003e
:103458006e0f47001e0078009cf5070059f507001d
:103468000004e000fdff3a000000eb00f042880095
:103478000080fa00000006000600fa00000f78003d
:103488001107980022079800200020009e0f1000c6
:1034980009003a001e0090000000e800100798009c
:1034a8009e0090002e009000808f50000200340093
:1034b8000000eb00100798001e0090000080fa0042
:1034c800000006000600fa00000f780011079800b7
:1034d80022079800100020009e0f100009003a00f3
:1034e8001e0090000000e800100798009e00900061
:1034f8002e009000808f5000020034000000eb0086
:10350800100798001e0090000080fa0000000600d6
:103518000a00fa00e40047000000eb008008780089
:10352800e40047000000eb009000980064004700aa
:1035380016fa070051fc800030fc80000080400033
:1035480050fc88000000eb00004388000143800025
:10355800c0122000808f5000fcff360030ef800042
:1035680052fc80006a00b90080007800a086200024
:10357800008040000208780030ef800032fc8000b4
:103588006a00b9008080e800a08620000080400022
:103598000208780030ef8000824280006a00b9009b
:1035a800e4004000a0862000008040000208780067
:1035b80030ef80000000e80030ef88000000eb00ea
:1035c80030fc88000000eb008042880040ef80005b
:1035d80050ef8800e0fb800042ef80008000400050
:1035e80040eb210000804000020878000000eb005a
:1035f80040ef8800803e20001043880060fc800077
:1036080000fc880070fc800010fc88000080fa0034
:10361800000006000600fa0040ef80000000e0000d
:1036280011003a000006200010079800d00d200075
:10363800000f78000e007800d4f907001000200071
:1036480040ef8800e0fb800042ef800080004000ef
:10365800c0de21000080400002087800e0fb800006
:103668000000e800e0fb88000080fa000000060087
:103678000600fa000002200010079800000a200047
:10368800000f78000e007800c0f907002000200025
:1036980040ef8800e0fb800042ef8000800040009f
:1036a800c0de21000080400002087800e0fb8000b6
:1036b8000000e800e0fb88000080fa000000060037
:1036c8000800fa003007980000062000100798004c
:1036d800000a2000000f78000e007800abf9070000
:1036e8003000200040ef8800e0fb800042ef8000bf
:1036f80080004000c0de2100008040000208780001
:10370800e0fb80000000e800e0fb8800be009000bd
:10371800400620000088b90040fc88000080fa00bc
:10372800000006000800fa00300798000002200098
:1037380010079800d00d2000000f78000e007800c8
:1037480092f907004000200040ef8800e0fb80006d
:1037580042ef800080004000c0de21000080400071
:1037680002087800e0fb80000000e800e0fb880029
:10377800be009000400620000088b90040fc880088
:103788000080fa00000006000000fa0061fc8000da
:1037980020032000808f500003003e005cff0700dc
:1037a80040012000c6ff07000080fa000000060064
:1037b8000000fa0071fc800080022000808f500019
:1037c80004003e0052ff070040012000bcff070034
:1037d8000700370071fc8000b0032000808f500084
:1037e800030036004aff0700c0fe2f00cdff070088
:1037f8000080fa00000006000200fa0040ef800096
:10380800000f78001e007800e20f500029003200f7
:103818001e007800e20f500007003c001e007800f0
:103828000000e0000b0032001e007800e10f50009d
:103838000b0032001e0037001e007800e30f500016
:103848000b0032001e007800e40f50001000320018
:1038580017003700ccff07006eff07001500370080
:10386800c9ff0700d2ff07006aff070011003700f1
:1038780031fc800040fc8000808f50000d00350036
:1038880023ff07000000eb0040fc88000900370018
:1038980031fc800040fc8000808f500005003c0017
:1038a8001bff07000000eb0040fc88000100370008
:1038b80017ff07000080fa00000006000400fa0065
:1038c800104380000000e00008003a0040ef80004c
:1038d80050ef8800e0fb800042ef8000800040004d
:1038e80040eb2100008040000208780040ef800093
:1038f800100798001e009000e20f5000ef00320001
:103908001e009000e20f500007003c001e009000cf
:103918000000e0000e0032001e009000e10f500091
:10392800280032004a0137001e009000e40f5000c2
:10393800ef0032001e009000e40f5000e100350057
:103948001e009000e50f50001401320040013700be
:1039580060fc8000f90f50000e003e0060fc800003
:103968000000e0000b00320041ff07000000eb0000
:103978000043880001438000007d2000808f5000b4
:10398800fcff3600e2fe0700400120004cff070064
:103998003001370061fc800020032000808f500038
:1039a80006003e0060fc80000000e00003003200da
:1039b8004001200042ff07002601370015ff0700dd
:1039c8002401370060fc8000f90f50000d003e0014
:1039d80060fc80000000e0000a00320024ff0700bd
:1039e8000000eb000043880001438000007d2000b8
:1039f800808f5000fcff3600c5fe07004001200004
:103a08002fff070061fc800020032000808f5000fa
:103a180007003e0060fc80000000e0000400320067
:103a2800bbfe07004001200025ff07009b00370070
:103a380071fc800020032000808f500007003e00aa
:103a480070fc80000000e00004003200b0fe0700b7
:103a5800400120001aff07009000370050ef800057
:103a6800000f78001e007800e20f50005e00320060
:103a78001e007800e20f500007003c001e0078008e
:103a88000000e0000e0032001e007800e10f500038
:103a98002a003200800037001e007800e40f500032
:103aa800720032001e007800e40f50006d003500ef
:103ab8001e007800e50f50006e00320076003700d7
:103ac80070fc800091fc8000810f500008003900d4
:103ad80071fc8000a00f2000808f500004003e0081
:103ae8008bfe0700c0fe2f000eff07006b0037009b
:103af80071fc8000a00f2000808f50006700360006
:103b080083fe070020fe2f0006ff0700500020005c
:103b180040ef8800e0fb800042ef8000800040001a
:103b2800c0de21000080400002087800e0fb800031
:103b38000000e800e0fb88005800370071fc8000b6
:103b480030062000808f50000800360071fc80008d
:103b5800a00f2000808f500004003e006cfe07007c
:103b680060ff2f00effe07004c00370071fc80005b
:103b780060fc8000808f50000800360061fc8000e7
:103b880040062000808f500004003e0060fe0700c1
:103b980040012000cafe07004000370071fc800089
:103ba800a00f2000808f50003c00360058fe070010
:103bb80020fe2f00dbfe07005000200040ef8800a9
:103bc800e0fb800042ef800080004000c0de210062
:103bd8000080400002087800e0fb80000000e80058
:103be800e0fb88002d00370070fc800091fc80000d
:103bf800810f50000800390071fc8000a00f2000e0
:103c0800808f500004003e0041fe070010ff2f0087
:103c1800c4fe07002100370071fc8000a00f2000bf
:103c2800808f50001d00360039fe070020fe2f004f
:103c3800bcfe07005000200040ef8800e0fb800039
:103c480042ef800080004000c0de2100008040007c
:103c580002087800e0fb80000000e800e0fb880034
:103c68000e0037006bfe07000c00370069fe0700e6
:103c78000a00370071fc8000900f2000808f5000f0
:103c88000300360022fe0700c0fe2f00a5fe070035
:103c980060fe0700010037001dfe070091fc800050
:103ca80060092000808f50006a00340090fc80007a
:103cb8006500500090fc88006600370014fe07007d
:103cc8006400370031fc800040fc8000808f500089
:103cd800600035000efe07000000eb0040fc880085
:103ce80090fc80006500400090fc88005900370077
:103cf80071fc800020032000808f500002003e00ed
:103d080003fe070043fe070070fc800011fc8000e2
:103d1800810f50000300310070fc800010fc880007
:103d28004c00370071fc800010fc800065004000ea
:103d3800808f500002003600f5fd0700450037006f
:103d480071fc800060fc8000808f50000b00360002
:103d580061fc800040062000808f500007003e0074
:103d680060fc80000000e00004003200e8fd07006d
:103d78008002200052fe07003600370031fc800028
:103d880040fc8000808f500032003c00e0fd0700be
:103d98000000eb0040fc88002e00370040fc80004b
:103da8000000e0001600320031fc800040fc80007a
:103db800808f500012003c00d5fd070015fe07005b
:103dc8005000200040ef8800e0fb800042ef8000b8
:103dd80080004000c0de210000804000020878001a
:103de800e0fb80000000e800e0fb88000000eb003a
:103df80040fc88000000eb000043880015003700f5
:103e080040fc80000000e0000b003a0061fc8000ec
:103e180020032000808f50000300360070fc8000d3
:103e2800fe0f500004003e00b9fd070040012000cd
:103e380023fe0700070037000143800070bb200005
:103e4800808f500003003600b1fd070001003700e5
:103e5800affd07000080fa00000006000000fa002d
:103e6800104380000000e00008003a0040ef8000a6
:103e780050ef8800e0fb800042ef800080004000a7
:103e880040eb2100008040000208780040ef8000ed
:103e98000000e000010032000a00370061fc8000e9
:103ea80020032000808f500005003e0060fc800049
:103eb8000000e000020032004001200000fe070080
:103ec800d4fd07000080fa00000006000200fa0096
:103ed8000000eb00000f7800030037000060fe00d0
:103ee8001e007800640f40001e007800cf80de00be
:103ef80009f1070002002400834b240041f2070067
:103f08000000e000f5ff35000080fa000000060020
:020000040000fa
:103f1800861f00000e0000000200000000000000e4
:103f2800000000003c003c0000000000960000007b
:103f380050080000361700000000000000000000d4
:020000040000fa
:043f48000000fe0077
:00000001FF
