:020000040000fa
:080000000002040000000000f2
:020000040000fa
:100400006f872000007f21000001880000000000ad
:100410000a00070011000700000020000000e000b3
:10042000020032000000020000000000700f020015
:10043000000000000040da000000fe004440a90077
:10044000000320000000e000030032000000200054
:10045000a00188004440a80000000600e00321003d
:10046000010020001500370062004000e0804800d5
:10047000910188009001ba0062004000e0804800cd
:10048000910188009002ba0062004000e0804800bc
:100490000002eb006028e10004003a000059eb0084
:1004a0008301e900fdff3e00040037006128e10000
:1004b000010032000082eb00050007009101880076
:1004c0001001ba000200e000e7ff3a00000005005a
:1004d000910188008002780062004000e0804800be
:1004e0003559ba008301e900080032002559ba00e5
:1004f0008301e900050032000400e000f4ff32004f
:1005000015d9ba008301e900f1ff3a0000000600a6
:100510000000000000000000881f7800020478003e
:1005200014000700080040004f0478000000060097
:100530000000fa00881f7800000478003fb9970097
:10054000ea81570080007800c028200010000700d2
:10055000800078000000e000020035000040eb0061
:1005600000f47800010078004f0478000080fa0061
:10057000000006008001eb000200370061f0790006
:100580008301e800828f5100fcff3a000000060062
:100590006200fa00889fbe008a9fbe000004be0071
:1005a000020578008300780060f92f000f004000fa
:1005b000b000070088979f0099979f000000eb000c
:1005c000a09f9f009a4578000b80fb000000ea0086
:1005d000cf04de0050c2b30080cf550002003200cd
:1005e00009047800010037000904e9000800e00070
:1005f0000b0034001f909700080178008a007800f3
:100600008f9197000300010090979f000000e00089
:10061000930032002f98970000004400a09f9f0095
:100620000905450050c2b30080cf550004003200d8
:100630000b04e000e3ff3a002f9897008900370091
:100640000000eb00809f9f00f0979f00e0979f00c5
:10065000d0979f00c0979f00b0979f00c09f9f00ba
:100660000900370080862000008050000000400014
:10067000c1852000e10078004f98970001007000cc
:10068000c09f9f000a05e8001a4478008800fb001c
:10069000808620007c000700800078000000e000d9
:1006a000f0ff3a00a0c2b300804f54000e003a00a1
:1006b000bf8897000180e900b08f9f00100078008c
:1006c000b09f9f000000e00005003d000000ea0030
:1006d000b09f9f004f9897000020a000c09f9f00f0
:1006e0000a05e80010003700b19f9f00090037009d
:1006f000bf989700f0ff2700808f50000400320061
:100700006a08b9000000410003004000b09f9f004c
:100710000a05e8001a01fb0003fd2f000300410059
:10072000e90f5000f2ff3600e0c2b3009a4f10000c
:10073000040032000080eb00909f9f008a04780044
:100740001c0037008a04e800a0c2b300994f1000d3
:1007500007003a00bf8897000180e900b08f9f0032
:1007600010007800909f9f008a84e80011003700f5
:100770000000eb00909f9f00090037009f989700b2
:10078000f0ff2700808f5000040032006a08b90093
:100790000000410003004000909f9f008904e80092
:1007a0001901fb0003fd2f0003004100e90f500079
:1007b000f2ff3600194478008800fb00e086200034
:1007c000310007000000e00002003a000044780019
:1007d000010037008904e800a87f9f0080c6b300ad
:1007e000804f540004003a00994f14000a003a0068
:1007f0006640500006003700c0c6b300804f54006a
:1008000005003a00994f140003003a00654040008b
:10081000a07f9f008904e8000905e800cbfb2f00ba
:100820008f8545001901fb0060f92f000f00400083
:100830000084e8008b0178008000780008007800d0
:100840001a0007000000e00005003a008b00780065
:1008500008007800580107000000e00059ff3d0043
:100860000080eb004f05be004f04be000080fa0080
:10087000000006000200fa00f1bf9f0001087800a6
:100880000080fa0000000600040037000204e000c7
:1008900001003a00000005000000e8001041780067
:1008a000814f5100f9ff3a0000000600889fbe000a
:1008b0008a1f7800000478000102780082447800e2
:1008c00003057800e0c6b300804f5100d20032002b
:1008d00015003c006b405000804f51002400320056
:1008e0000a003c0070405000804f51000f01320060
:1008f00065404000804f51007400320050c2b30088
:10090000804f510020013a001c01370040c6b3005f
:10091000804f51001b00320065404000804f510065
:1009200019013a001700370030c7b300804f51005b
:10093000fe00320007003c0064405000804f510030
:10094000620032000040e800804f51000e013a0082
:10095000e700370050c7b300804f51005b00320002
:1009600063404000804f510007013a0057003700b4
:100970009180e900010a7800780090009171780078
:1009800007013700a8609000c0c6b30080cf5000b8
:100990000a003a009400780064805000000a780051
:1009a0001000be004f89de00cf91de000002be00c5
:1009b00002037800820378001300370010c7b300e9
:1009c00080cf500003003200a0c6b30080cf50009b
:1009d00006003a009400780068805000000a780011
:1009e0003002be002003be00070037001480e9007b
:1009f000000a78001000780000027800cfa2de0024
:100a00000503780086037800049cbe000694be00af
:100a1000a860900080c6b30080cf50000e00320066
:100a200020c6b30080cf500005003a000400fb0050
:100a3000cf80de0001017800820178000a003700d3
:100a400040c7b30080cf5000030032006640400032
:100a500080cf500006003a0004007800cf80de000e
:100a60000101780082017800009cbe000294be0063
:100a70003800be002801be00e00f5000e08f580093
:100a8000e00f5900e08f590003003d00780090000e
:100a9000d1c2b3000a003700081090000018a3006c
:100aa0000300320078009000b1c2b30004003700a8
:100ab0000008a300530032007800900001c2b30088
:100ac000017578000000e8004d003700a860900034
:100ad000c0c6b30080cf500006003a0094007800f2
:100ae00064805000000a78001002be006033b80035
:100af0001300370010c7b30080cf5000030032004e
:100b0000a0c6b30080cf500006003a0094007800e1
:100b100068805000000a78003002be002003be004a
:100b2000070037001480e900000a78001000780000
:100b300000027800050020000600200007002000c9
:100b4000049cbe000694be00a860900080c6b3005e
:100b500080cf50000e00320020c6b30080cf50007e
:100b600005003a000480fb00010020000200200084
:100b7000030020000a00370040c7b30080cf5000b8
:100b8000030032006640400080cf500006003a006b
:100b90000400780001002000020020000300200073
:100ba000009cbe000294be00081090000038a30014
:100bb000140032003800be002801be00e00f5000d3
:100bc000e08f5800e00f5900e08f59000d0032000f
:100bd00080c7b30080cf54000300320080c5b3004b
:100be00080cf540007003a007800900001c3b300a2
:100bf000017578008000e80009f578000080e800c1
:100c0000700498007800900000004500600498008f
:100c10008940780042003700a8609000c0c6b30049
:100c200080cf5000250032000a003c006440500094
:100c300080cf50002800320000c0e80080cf500074
:100c4000140032006840500080cf500022003a006b
:100c50000a00370040c7b30080cf50001e003200aa
:100c60006640400080cf50001b00320069405000b9
:100c700080cf500018003a00060037001480e900c9
:100c8000000a780010007800485c9000084878005e
:100c9000450037001480e900000a7800100278004f
:100ca00068089000cf80de000101780082017800a2
:100cb000009abe000292be003b0037001480e9009b
:100cc000000a78001001780068089000cf80de00ec
:100cd0000089be00340037001480e900000a780063
:100ce00010007800680c9000080878002e0037008b
:100cf0001180e9008008780010007800cf80de00c5
:100d00000101780082017800009cbe000294be00c0
:100d100078009000000045006004980081c7b3008f
:100d200008007800ee0007001f0037001480e9007b
:100d3000000a7800100078006004980058099000bc
:100d40000200e00002003d009d010700090037009d
:100d50008000eb00a1010700800078000000e000a7
:100d6000030032006800900000805000010037004e
:100d700058089000100c98000b0037007800900085
:100d8000027578000600370078009000800045006a
:100d90000904e00001003a0059c2b3008948780014
:100da0000000e800700498000000eb004f05780098
:100db0004f04be00000006000400fa00889fbe0039
:100dc0008a9fbe008c1f780000047800010678001e
:100dd00070089000f8009000010050008808900012
:100de000010050009808900001005000a8089000f1
:100df00001005000b808900001005000c8089000a1
:100e0000810550000002220090bf9f0000032300d4
:100e1000a0bf9f00081090000028a30018003a000f
:100e20000b00e000160034008b0478000905780000
:100e3000e28f5400020036002a0020000200370032
:100e40000900e0000b00340058009000c801900039
:100e50000a017800ee80570003000100500498005a
:100e60000000e00096003200680890000000450095
:100e7000600c98008a8454004240a900ebff3c00bb
:100e8000780190000200e0000b0034005800900050
:100e9000c80190008c007800030001005004980005
:100ea0000000e0008600320068089000f800900022
:100eb00001004000600c9800880c90000900e000e0
:100ec0001500340009057800e28f54000200360056
:100ed0002a002000020037000900e0000b00340067
:100ee00058009000c80190000a017800ec8057007b
:100ef00003000100500498000000e0007000320080
:100f00006808900000004500600c98008a84540036
:100f10004240a900ebff3c00180990000200e000ed
:100f20000b003400e800900058009000c8019000c9
:100f300003000100500498000000e000600032004f
:100f4000680890009808900001004000600c98002c
:100f5000a80c90000900e000150034000905780095
:100f6000e28f5400020036002a0020000200370001
:100f70000900e0000b00340058009000c801900008
:100f80000a017800ec80570003000100500498002b
:100f90000000e0004a0032006808900000004500b0
:100fa000600c98008a8454004240a900ebff3c008a
:100fb000380990000200e0000d003400e8009000c5
:100fc000180890008080400058009000c8019000f0
:100fd00003000100500498000000e00038003200d7
:100fe00068089000b808900001004000600c98006c
:100ff000c80c90000900e0001500340009057800d5
:10100000e28f5400020036002a0020000200370060
:101010000900e0000b00340058009000c801900067
:101020000a017800ec80570003000100500498008a
:101030000000e00022003200680890000000450037
:10104000600c98008a8454004240a900ebff3c00e9
:10105000081090000028a3001b0032000b00e000e5
:10106000190034008b04780009057800e28f5400e1
:10107000020036002a002000020037000900e000cc
:101080000b00340058009000c80190000a0178005d
:10109000ee80570003000100500498000000e000bb
:1010a000070032006808900000004500600c9800be
:1010b0008a8454004240a90003003400eaff37004c
:1010c0000080eb00010037000000eb004f067800c5
:1010d0004f05be004f04be000080fa00000006006d
:1010e000ef02b000889fbe008a9fbe008c9fbe00aa
:1010f0008e1f780000067800b0842000c0b79f00e3
:1011000080c5b30080cf500008003200a2832000c9
:10111000c2b79f007740400080cf500003003a00e4
:1011200083002000b3b79f000a00370080c7b300d8
:1011300080cf500005003200a4002000b4b79f000b
:1011400080c5b30080cf500002003a0000012000ab
:10115000b0b79f003c04be002c05be0040c6b300e3
:1011600080cf5000030032006540400080cf500027
:101170000b003a00e00f5400e08f5c00e00f5d00d0
:10118000e08f5d0006003d006000b8006011b8000f
:1011900008045000898458000a0559008b855900bd
:1011a000e00f5400e08f5c00e00f5d00e08f5d0019
:1011b00004003a005c0890008d0120000000e0006f
:1011c0000c003200bfb0970001027800cfa2de0011
:1011d00005037800860378000800be000a01be00ff
:1011e000090107004fb2970064407800d0df9f00ec
:1011f0007d0120003fb0970000027800cfa2de0002
:1012000005037800860378000800be000a01be00ce
:10121000f6000700009ebe000296be000d00e90029
:1012200061fc2f008f804000008740001e003700c7
:101230003fb1970002047800cfc4de0009057800b2
:101240008a0578000802be000a03be007fa8970046
:101250008fb097001fb19700afb19700ee00070065
:10126000d0b79f00e1b79f00f2b79f0083bf9f00f8
:101270008d06e9000802be000a03be006c010700eb
:101280007faa970000005200cfb097006157780006
:101290005fb09700efb097007fb197008fb99700cc
:1012a000009ebe000296be003c00be002c01be00a7
:1012b000f0af9f0081b79f0092b79f00a3b79f0038
:1012c000e00f5000e08f5800e00f5900e08f590008
:1012d000020034000d00e000d5ff3c00bfb09700d5
:1012e000e88f500010003a000c1090000038a30066
:1012f0000d003200f78f560006003e0062fc2f0002
:101300000f0141008d00410000c3b300914f100058
:10131000050032008d06e90000c3b30063fc2f0016
:101320008f81410080f17e0078811600120e9800b6
:101330006c00900063fc2f008f8141008d80410084
:101340008cfc07001c0990005c089000800f510085
:1013500006003d0002005000000e98000c109000a6
:101360000040a100001698000f0037000000e000c8
:101370000d003d000c10900074006000f00f500054
:1013800009003a007c089000fc0090000100500029
:101390008c08900001005000020050004240a9005b
:1013a00001003400000e98004f0778004f06be0081
:1013b0004f05be004f04be00ef02b1000000060062
:1013c00080007800010037000000e8001004e00011
:1013d000fdff3a0001005000000006008001eb0014
:1013e000040037008301e80090cf100004003200b1
:1013f0000000e800828f5100faff3a000000eb0085
:1014000000000600881f7800000478005001be002c
:101410004000be00040040008580480006014900ed
:1014200087814900009cbe000294be000400e100d8
:101430000588e1000690e1000798e1000200310014
:10144000680044001008e8004f047800000006001f
:10145000f4874700889fbe008a9fbe008c9fbe0015
:101460008e1f78000205be000004be00d4b79f00a6
:10147000e5b79f00f6b79f0087bf9f000000eb0015
:10148000c0b79f00b0b79f00a0b79f0090b79f0064
:1014900080b79f000d042000bfb097004fb09700a9
:1014a000000140000000e0000f003d004f08de009a
:1014b00000007100c0b79f009e00070001003d00c2
:1014c00012002000a100070001003d0012002000d2
:1014d000a6000700b1000700b60007000f0040009b
:1014e000c8ff0700220037004f08de000006710029
:1014f000ccb79f008f00070001003d0012002000c4
:101500009200070001003d00120020009700070034
:10151000a20007000fb297009fb297002fb3970069
:10152000bfb39700a90007000000520081805a0055
:1015300002015b0083815b0080b79f0091b79f0031
:10154000a2b79f00b3b79f000007eb009f00070002
:101550000020e10001a8e10002b0e10003b8e100d1
:10156000010031001e0020000e005600c0b79f0091
:101570004fb297000400e000070035001000200083
:10158000010020006011b800080470008984700018
:101590000a0571008b8571008d06e900beff3a00d7
:1015a0000400e00003003d00820007000f0040003f
:1015b00094ff07004fa897000000e00004003a00e5
:1015c0000fb497009fb497002fb59700bfb5970051
:1015d000940007004f0778004f06be004f05be007d
:1015e0004f04be004f01b10000000600881f7800c4
:1015f00018002000881f780095ff07008f87e900fa
:101600004f04780000000600801feb0090ff0700e9
:101610008f87e90000000600889fbe008a9fbe00f9
:101620008c1f78006e00070007003d007300070064
:10163000e00f5b00e08f5b0007003d003200070019
:101640000006eb00040037003400070002003d00f4
:101650002a0007001c00200072000700e3ff0700bb
:101660000203be000002be000c00e00001003200d8
:10167000220007000400be000601be004f067800ed
:101680004f05be004f04be0000000600889fbe004c
:101690008a9fbe008c1f78005100070005003d00a6
:1016a00056000700e00f5b00e08f5b0006003d0086
:1016b000040037001900070003003d006000b80077
:1016c0006011b8001000070056000700ceff0700a9
:1016d0000203be000002be000c00e0000100320068
:1016e000060007000400be000601be004f06780099
:1016f0004f05be004f04be00000006006000b800a9
:101700006011b800000037000402500085825800c4
:101710000603590087835900000006000006eb000d
:10172000e00f5200e08f5a00e00f5b00e08f5b009b
:10173000000006000180400090b79f000001eb0010
:101740008fb097000100e00000000600020070006a
:1017500090b79f000180400080b79f000001eb0020
:10176000ffa897000100e0000000060002007000e2
:1017700080b79f00018040006faa9700cf20de0055
:1017800001007000f0af9f00040242002500070036
:101790004f18de000002720000000600e4af9f0058
:1017a0000804440089844c000a054d008b854d00d7
:1017b000000006003fb29700cfb297005fb39700da
:1017c000efb3970000fe2f00000006003fb0970027
:1017d000cfb097005fb19700efb19700000006000f
:1017e0000205be000004be00e00f5000e08f58006c
:1017f000e00f5900e08f5900000006006000b800bb
:101800006011b80008045000898458000a05590086
:101810008b8559001c002000e00f5200e08f5a0019
:10182000000006000800be000a01be00000006001d
:10183000889fbe008a9fbe008c1f78000205be00f4
:101840000004be000006eb00e00f5000e08f5800df
:10185000e00f5900e08f590007003d006000b8001c
:101860006011b80008045000898458000a05590026
:101870008b8559001c002000e00f5200e08f5a00b9
:10188000e00f5b00e08f5b0002003d000f000700ef
:101890000c00a2000800be000a01be0012000700f2
:1018a0000203be000002be000c00e0000100320096
:1018b000060007000400be000601be004f067800c7
:1018c0004f05be004f04be00000006006000b800d7
:1018d0006011b800040250008582580006035900c8
:1018e0008783590000000600889fbe008a9fbe00c3
:1018f0008c9fbe000404b8000506b80089044600a9
:1019000060854e000606b8000a054600e0854e00d8
:101910000706b8008b054600040eb800890446008f
:101920000a854e00e0854d00050eb8000a05460008
:101930008b854e00060eb8008b0546000416b800d5
:101940000a0546008b854e000516b8008b0546003b
:10195000041eb8008b0546000800be000a01be0048
:101960004f06be004f05be004f04be00000006003b
:020000040000fa
:0457f800dbf90000d9
:020000040000fa
:0457fc007f1f00000b
:020000040000fa
:1000080082100000821000008210000082100000a0
:100018008210000082100000821000008210000090
:100028008210000082100000821000008210000080
:100038008210000082100000821000008210000070
:020000040000fa
:020000040000fa
:10197000726100006e670000652000003d200000dd
:101980002569000020200000004c0000696700006d
:1019900068740000203d0000202500006920000040
:1019a00020000000535200004630000038200000a4
:1019b000736f0000667400007761000072650000bc
:1019c000207600003a20000025320000640000006c
:020000040000fa
:1019d0000600fa00881f78002047980031479800d9
:1019e0004247980020010700e1cfb3002e4090004d
:1019f00000c06000f90007000004e0000e003200a3
:101a0000240107000040eb00004f7800060037007b
:101a10009e80fb00008020008080400000c0eb0022
:101a2000804878001e4fe8004e4090009e4f100006
:101a3000f7ff3900410037003e409000e700070003
:101a40000004e0000e003200120107000040eb002d
:101a5000004f7800060037009e80fb0000802000c9
:101a60008080400000c0eb00804878001e4fe800f6
:101a70004e4090009e4f1000f7ff39002f003700b6
:101a8000f90007002e4090000004a000d3000700da
:101a90000004e0000e003200fe0007000040eb00f2
:101aa000004f7800060037009e80fb000080200079
:101ab0008080400000c0eb00804878001e4fe800a6
:101ac0004e4090009e4f1000f7ff39001b0037007a
:101ad0000040eb00004f7800080037001e84fb0038
:101ae00000c0eb00930007008040780000802000d9
:101af00000004400014878001e4fe8009e80fb0073
:101b00004e4090000080fb000000e900808f5000f4
:101b1000f2ff35004e4090000080fb000004e90019
:101b20000040eb0083000700804078000080200028
:101b30000000440001487800d60007004f047800f8
:101b40000080fa00000006000000fa00c60007004e
:101b500060ccb300a10007000004e00002003200e6
:101b6000cc000700130037000040eb009b0007008b
:101b70000004e00002003200c60007000d0037003c
:101b800040c0b300950007000004e00002003200ee
:101b9000c000070007003700c0c0b3008f00070077
:101ba0000004e00002003200ba0007000100370024
:101bb000b80007000080fa00000006000200fa00ea
:101bc000004f7800a800070060ccb3008300070036
:101bd0000004e00002003200ae00070013003700ee
:101be0000040eb007d0007000004e000020032002e
:101bf000a80007000d00370020c0b30077000700e1
:101c00000004e00002003200a200070007003700d5
:101c10001e407800710007000004e000020032005e
:101c20009c000700010037009a0007000080fa00be
:101c3000000006000400fa00004f780011479800e9
:101c400022479800880007001e40780063000700c4
:101c50000004e000020032008e0007000d00370093
:101c60001e4090005d0007000004e000020032000a
:101c700088000700070037002e409000570007003b
:101c80000004e0000200320082000700010037007b
:101c9000800007000080fa00000006000400fa003f
:101ca00020479800314798006f0007002e409000b1
:101cb0004a0007000004e00002003200750007003f
:101cc0001a0037003e409000440007000004e00086
:101cd000020032006f000700140037000040eb00e4
:101ce000004f78000a0037009e80fb0040822000f1
:101cf0000080400010407800380007000004e00039
:101d00000200320063000700080037001e4fe800a1
:101d10009e80fb0040822000008040001040780040
:101d20000004e000f0ff3a005a0007000080fa00cb
:101d3000000006000400fa00204798000040eb0075
:101d4000004f7800c8a2a8000040eb0010479800a0
:101d5000120037001e40780000404000004f78001d
:101d6000c8c2a800cac2bf000044b2000004e0001c
:101d7000fbff320050000700cac2bf000042b200a1
:101d80000004e000010032001e04a000c8c2a90047
:101d90001e4090000040e800104798001e40900050
:101da000e74f5000ebff36002e4090000004e000ab
:101db00002003200c8a2a90001003700c8a2a80092
:101dc000c8c2a8003c000700c8c2a900c8a2a80059
:101dd0001e80fb000080fa00000006000400fa00ec
:101de0002047980080c0b300004f78000e003700f5
:101df000310007002e4090000004e00002003d008a
:101e0000c8a2a80001003700c8a2a900c8c2a80043
:101e1000290007002e409000004040002047980015
:101e2000c8c2a9001e4fe9001e04e000f0ff3a00fe
:101e300021000700c8a2a800c8c2a8001e00070011
:101e4000cac2bf000080fb004500de0061406000a8
:101e5000004f7800c8c2a9001e4078000000fb00b7
:101e60000080fa00000006000000fa00c8a2a800e6
:101e700011000700c8c2a8000f000700c8a2a900ef
:101e80000d000700c8c2a9000b0007000080fa007f
:101e9000000006000000fa00c8a2a9000600070022
:101ea000c8c2a80004000700c8a2a80002000700da
:101eb0000080fa00000006000200fa000040eb007b
:101ec000004f7800010037001e4fe800e0c0b3006b
:101ed0009e4f1000fcff36000080fa000000060054
:101ee0000200fa005c000700801a26004700070085
:101ef0005100070014ff07002f00070032c0b30095
:101f000011c0b30000ceb300b1fe070001c8bf008e
:101f10000080fb00000f78001e007800c800dd0084
:101f200002c8bf000080fb00008f4000c0452400b5
:101f30003600070012c5b3008040eb0000ceb300ae
:101f40003cff070050c1b3001cff07004182200086
:101f50001e007800801f780080cb2800801f78004a
:101f60000100780072f90700e48757008040eb0019
:101f700060ccb30049ff070090c2b3000fff070019
:101f800000c8bf000080fb0041822000801f780055
:101f900050cc2800801f78000100780064f9070009
:101fa000e48757008040eb0060ccb3003bff0700a4
:101fb00021000700d1ff37000000fa0012c0b30073
:101fc0008040eb0000ceb30081fe070010c0b300dc
:101fd000fafe070000c8bf000080fb00418220001d
:101fe000801f780020cd2800801f78000100780035
:101ff0004ff90700e48757008040eb0060ccb30046
:1020000026ff07000080fa00000006000200fa0028
:10201000000f78000000eb00000888001e00780028
:10202000100888008460a9009460a90005e1a80058
:102030000080fa00000006000000fa0084c0bf0023
:10204000684060000004e000fcff320005e1a900e8
:102050000080fa00000006000000fa000000eb001b
:10206000203a88000002200020088800f0ff2900a4
:0c207000601988000080fa0000000600e3
:020000040000fa
:10207c00000800003a000000000000005c080000ae
:10208c001200000002000000010002000004000029
:10209c000800100000000000202b2d002330000051
:1020ac006e0800000800000002000000686a6c0066
:1020bc00747a4c00000000003a0800002200000076
:1020cc00020000003031320033343500363738002e
:1020dc0039616200636465006600300031323300a0
:1020ec003435360037383900414243004445460008
:0820fc000000000000000000dc
:020000040000fa
:042104000000fe00d9
:00000001FF
